:020000040800F2
:10000000280B002001010008CF2A0008392600082B
:10001000CD2A000889080008033600080000000007
:10002000000000000000000000000000F12E0008A9
:10003000B909000800000000D12A000815340008A2
:100040001B0100081B0100081B0100081B01000820
:100050001B0100081B0100081B0100081B01000810
:10006000BD0900081B0100081B0100081B01000856
:100070001B0100081B0100081B0100081B010008F0
:100080001B0100081B0100081B0100081B010008E0
:100090001B0100081B0100081B0100081B010008D0
:1000A0001B0100081B0100081B010008793400082F
:1000B0001B0100081B0100081B0100081B010008B0
:1000C0001B0100081B0100081B0100081B010008A0
:1000D0001B0100081B0100081B0100081B01000890
:1000E0001B0100081B0100081B010008DFF80CD0F1
:1000F00000F05AFB00480047D1390008280B0020C7
:100100000648804706480047FEE7FEE7FEE7FEE7B1
:10011000FEE7FEE7FEE7FEE7FEE7FEE775340008D0
:10012000ED000008202A04DB203A21FA02F0002129
:10013000704721FA02F3D040C2F1200291400843F7
:100140001946704740EA01039B0703D009E008C93C
:10015000121F08C0042AFAD203E011F8013B00F88C
:10016000013B521EF9D27047D2B201E000F8012BD8
:10017000491EFBD270470022F6E710B513460A4627
:1001800004461946FFF7F0FF204610BDF0B480EAA0
:100190000102D40F4200B2EB410F02D202460846E0
:1001A00011464A0042D0C30DDDB2C1F3C752AD1AA9
:1001B000202D35DAC1F3160141F4000204B1524298
:1001C000C5F1200602FA06F12A411044B3EBD05FD4
:1001D00023D0C4B1012DA0EBC35009DCF0BC4FF01B
:1001E000004202EAC352DBB200F5000000F051BA4F
:1001F000400000F1807000EBC350A0F1807040EA35
:10020000D170490009E0490841EAC071A0EBC35030
:1002100000F50000400800EBC350F0BC00F030BA1D
:100220006142012202EB4101001BF6E7F0BC70477E
:1002300081F00041AAE780F00040A7E780EA0102D0
:1002400010B502F00043400022D04A001FD0010E3A
:1002500001EB1261C0F35600C2F3560240F40000F5
:1002600042F40002A0FB022000047F39140400D0F5
:10027000401C50EA124001D44000491EC2B20C0694
:1002800004EBD010401C4008802A02D003E000207C
:1002900010BD20F00100002900DA0020184310BD35
:1002A00030B480EA010202F0004530F0004221F053
:1002B000004013D090B1C30DD40DC2F31601C0F3AA
:1002C0001600E41A41F4000140F400027D3491422A
:1002D00001D3641C00E04900002C02DA30BC00208D
:1002E00070474FF400000023914201D3891A034361
:1002F00040084FEA4101F7D151B1914202D14FF08C
:10030000004105E002D24FF0010101E06FF0010170
:1003100003EBC450284430BC00F0B2B9420005D011
:10032000C0F3C7525242914201DC0020704700EBFB
:10033000C15070472DE9FE4F804681EA0300C00F8F
:100340000C46009021F0004123F00045B8EB02007C
:10035000A94105D24046214690461C460B4602461E
:1003600023F00040104347D0270DC7F30A00C3F322
:100370000A510290401A019040286BDAC3F313002F
:1003800040F4801B0098924620B10023D2EB030A70
:1003900063EB0B0B01985946C0F14002504600F048
:1003A0004EF906460D4650465946019A00F056F958
:1003B00010EB08006141002487EA115284EAE773D8
:1003C0001A4340D0009A62B3019A012A4FEA0752B9
:1003D00015DC001B61EB02014FF0004202EA0752FC
:1003E000CDE90042001C41F5801132462B4600F059
:1003F0008DF903B0BDE8F08F40462146F9E7001BB8
:1004000061EB0201001C41F5801300185B412018CC
:10041000A2F5001747EB030140EAD570B6196D410C
:1004200011E06D084FEA360645EAC0754FEA0752FB
:10043000001B61EB0201001C41F5801149084FEAE5
:1004400030000019514132462B4603B0BDE8F04F51
:1004500000F04DB90098012240000023D0EB0202C9
:1004600063EBE073009821464FEAE074B8EB0000BC
:1004700061EB0401E9E783F000435BE781F00041B1
:1004800058E72DE9FE4F81EA030404F0004421F00F
:10049000004100944FF0000B23F0004350EA0104A8
:1004A0005ED052EA03045BD0C3F30A54C1F30A5589
:1004B0002C44A4F2F3340194A0FB0254C1F31301C1
:1004C00041F48011C3F3130343F4801301FB02448E
:1004D00000FB034E840A970A44EA815447EA835793
:1004E000A4FB076802958D0A05FB07854FEA932C4C
:1004F00004FB0C542705029D4FEA065847EA1637BD
:10050000B5EB08056EEB070C870E920E47EA8117D4
:1005100042EA8312A7FB0201B6EB0B0164EB000475
:100520002B0D43EA0C335E1844EB1C50DA4651465F
:10053000E7FB0201C5F313044FEA0B3343EA1453FC
:100540004FEA0432019C43EA0603A4F10C0402942E
:10055000009CCDE900B400F0D9F803B0BDE8F08FFD
:1005600000200146F9E770B521F0004303430CD0A9
:10057000C1F30A550024D5EB040564EB0403D61738
:10058000AD1AB34102DB0020014670BD201841EBDB
:10059000025170BD96230022114600F07AB80EB5C4
:1005A00040F2334102910021CDE900110A460B4689
:1005B00000F0ACF803B000BD20F00040C10DC0F366
:1005C000160040F400007F2901DA002070479629C8
:1005D00003DCC1F19601C8407047963988407047E6
:1005E000C1F30A5210B5C1F3130140F2FF3341F4D5
:1005F00080119A4201DA002010BD40F233439A4242
:10060000A2F2334203DC5242FFF78CFD10BD904052
:1006100010BD30B50B46014600202022012409E020
:1006200021FA02F59D4205D303FA02F5491B04FAAB
:1006300002F52844151EA2F10102F1DC30BD202A8A
:1006400004DB203A00FA02F1002070479140C2F129
:10065000200320FA03F3194390407047202A06DB59
:10066000CB17203A41FA02F043EAE07306E041FA80
:1006700002F3D040C2F1200291400843194670476E
:100680000029A8BF7047401C490008BF20F00100A6
:10069000704710B4B0FA80FC00FA0CF050EA010484
:1006A00004BF10BC704749B1CCF1200421FA04F416
:1006B00011FA0CF118BF012121430843A3EB0C01EF
:1006C000CB1D4FEA00614FEA102042BF002010BC52
:1006D000704700EBC35010440029A4BF10BC704702
:1006E000401C490008BF20F0010010BC704710B545
:1006F000141E73F1000408DA401C41F10001921845
:100700005B411A4301D120F0010010BD2DE9F04DED
:1007100092469B4611B1B1FA81F202E0B0FA80F242
:1007200020329046FFF78BFF04460F4640EA0A004E
:1007300041EA0B0153465A46084313D0114653EA87
:10074000010019D0C8F140025046FFF7EBFC054606
:100750000E46504659464246FFF771FF084305D002
:10076000012004E020463946BDE8F08D0020054315
:1007700046EAE0762C4337430A986305E40AA0EB87
:1007800008000022FD0A44EA47540A3002D500203E
:100790000146E9E7010510196941DDE9084500193D
:1007A0006941BDE8F04DA2E7064C074D06E0E06860
:1007B00040F0010394E8070098471034AC42F6D3A8
:1007C000FFF798FC345D0008545D000870B50446DE
:1007D00000688168C943C9071CD1816821F0010103
:1007E000816000F0CDFB05460FE000BF00F0C8FBC4
:1007F000401B022809D9A06A40F01000A062E06AFC
:1008000040F00100E062012070BD20688068C043B4
:10081000C007EBD0002070BDF8B500260446009656
:1008200000688168C943C90728D0816841F0010187
:100830008160134813490068B0FBF1F000E0401EEE
:1008400000900028FBD100F09BFB054611E000BFA3
:1008500000F096FB401B02280BD9A06A40F0100064
:10086000A062E06A40F00100E06284F824600120A8
:10087000F8BD20688068C043C007E9D10020F8BDFA
:100880005400002040420F00FEE700002DE9F04137
:10089000164E4FF4006700253946304602F0A3FD9E
:1008A00000244FF001083946304602F0A7FD00222F
:1008B0003946304600F05FFB022003F07DF83946F0
:1008C000304602F090FD3946304600F047FB18B143
:1008D00008FA04F02843C5B2322003F06DF8641C16
:1008E000082CE0DB2846BDE8F0810000000801404C
:1008F00070B5124D4FF400642146284602F07EFD8B
:1009000000222146284600F036FB4FF4F07003F039
:1009100053F82146284602F066FD502003F04CF8BB
:100920002146284600F01AFB30B1FF244FF4C8706E
:1009300003F042F8204670BD0124F7E700080140AB
:100940002DE9F0411B4E07464FF40065294630461D
:1009500002F054FD00244FF0010800BF08FA04F033
:1009600038422946304611D002F048FD002229467F
:10097000304600F000FB012003F01EF82946304607
:1009800002F031FD322003F017F80DE002F036FDE1
:1009900000222946304600F0EEFA322003F00CF82F
:1009A0002946304602F01FFD641C082CD6DBBDE84A
:1009B000F0810000000801407047000010B50420DD
:1009C00000F0D0F90A4802F020FB0A49024608600C
:1009D0000949074802F0E0FC07480178572905D18A
:1009E00040784C2802D105490120086010BD000064
:1009F0007404002044000020C005002019000020DD
:100A000070470000F8B50024009490F82420254693
:100A1000012A12D0012280F824204A681F23072AC5
:100A20000DD20668776B521E02EB820293409F4301
:100A30000B6893401F43776319E00220F8BD0668F6
:100A40000D2A0AD2376BD21F02EB820293409F43DA
:100A50000B6893401F43376309E0F76A0D3A02EBD6
:100A6000820293409F430B6893401F43F7620A68DA
:100A7000072306680A2A0AD3F7680A3A02EB4202F9
:100A800093409F438B6893401F43F76008E03769AA
:100A900002EB420293409F438B6893401F433761B0
:100AA0000A68102A01D0112A20D1124B02689A42FA
:100AB00017D193681B0219D4936843F40003936021
:100AC0000968102912D10C490C4A0968B1FBF2F1EE
:100AD00001EB8101490000E0491E00910029FBD192
:100AE00004E0816A41F020018162012480F82450F1
:100AF0002046F8BD002401405400002040420F0071
:100B00000068C06C704700002DE9F0414FF000070D
:100B100004003D467ED0A06A002628B9E66284F82B
:100B20002460204600F07EF82046FFF74FFEA16AC1
:100B3000C90600D420B1A06A40F01000A06269E0AC
:100B4000A16A21F4885141F00201A1626268E16961
:100B5000237B0A4347EA43010A43A1684FF48077A5
:100B6000B94209D0012907D05FF0000194F814C000
:100B7000BCF1010F02D00AE03946F7E7F3B1A36AEE
:100B800043F02003A362E36A43F00103E3622368B6
:100B9000D3F804C02CF4694C4CEA010CC3F804C02F
:100BA00021688B68DFF870C003EA0C0313438B6085
:100BB000A168B9420BD0012909D00CE0DFF85CC074
:100BC000A3690CEB43330B4343F40061DFE7218A55
:100BD0000D05A5F580152168CB6A23F470032B431E
:100BE000CB62216889680E4B1940914208D1E662B8
:100BF000A16A21F0020141F00101A162BDE8F0818A
:100C0000A06A20F0020040F01000A062E06A40F00C
:100C10000100E0620120F1E7FDF7E1FF00E0FFFFE6
:100C2000FE0E1FFF00B585B00021009101910291D9
:100C3000039100680E49884218D10E48816941F439
:100C400000718161816901F400710491816941F051
:100C5000040181618069694600F00400049002206B
:100C6000009003200190044800F088F805B000BD12
:100C700000240140001002400008014070B5044605
:100C800090F8240001280DD0012084F8240020468B
:100C9000FFF7C2FD02004FF0000005D084F82400E9
:100CA000104670BD022070BDA16A40F20123994335
:100CB00041F48071A1621F4D23681F49AB4218D1D6
:100CC0000E6816F4702F14D0A66A46F48016A66239
:100CD0000E68760505D5A66A26F4005646F48056B9
:100CE000A662A66AF6040AD5E66A26F00606E66259
:100CF00006E0A66A26F48016A6625E68E9E7E0626E
:100D000084F824006FF00200186020688368C3F341
:100D10004243072B05D1A84208D1096811F4702F6E
:100D200004D0816841F480118160B9E7816841F4A1
:100D3000A001F9E7002801400424014070B50446F1
:100D400000F01EF90546601C02D0044800780444F7
:100D500000F016F9401BA042FAD370BD48000020F5
:100D600070470000044910B50A68024202D00860CA
:100D7000FFF7F6FF10BD0000140401402DE9F84F05
:100D8000DFF8B891002409F1040A0AF1040B2346A4
:100D90000F270BF1040EC9E00125A5402A40AA4205
:100DA0007DD1674ED1F804C0ACEB0608B44532D013
:100DB00014DCBCF1030F3AD009DCBCF1000F2AD0DF
:100DC000BCF1010F1CD0BCF1020F31D11DE0BCF110
:100DD000110F17D0BCF1120F2AD119E0B8F5881FF6
:100DE00019D006DCB8F5803F15D0B8F5801F1FD1AB
:100DF00011E0B8F5001F0ED0B8F5041F18D10AE0B5
:100E0000CB6815E0CB681B1D12E0CB6808330FE000
:100E1000CB680C330CE08B682BB1012B4FF008032F
:100E200003D0456104E0042302E0056100E00023F3
:100E3000FF2A01D8064601E000F104064FEA8405C6
:100E400001D9A5F12005D6F8008007FA05FC28EAAB
:100E50000C0803FA05F548EA0508C6F800804D6855
:100E6000ED0062D5374DAE6946F00106AE61AD6961
:100E700024F0030605F001050095334D06EB050C43
:100E8000DCF80850A607360F07FA06F825EA080529
:100E9000DFF8B880404503D14FF0000817E044E088
:100EA000DFF8AC80404502D14FF001080FE0DFF8D9
:100EB000A480404502D14FF0020808E0DFF8988096
:100EC000404502D14FF0030801E04FF0040808FA52
:100ED00006F848EA0508CCF808804D68D9F80060A3
:100EE000ED034D4601D5164300E096432E604D6854
:100EF000DAF80060AD03554601D5164300E096438D
:100F00002E604D68DBF80060ED025D4601D51643AA
:100F100000E096432E604D68DEF80060AD02754635
:100F200001D5164300E096432E60641C0D682A46E6
:100F3000E5407FF431AFBDE8F88F000000040140C8
:100F400000001110001002400000014000080140A4
:100F5000000C01400010014000140140806808406E
:100F600000D001207047C26821EA02030A4043EA28
:100F70000241016170470AB1016170470904FBE752
:100F800001488068704700004800002070B50400E8
:100F900025D094F83D00002520B984F83C50204627
:100FA00000F004FA242084F83D002068016821F054
:100FB000010101602068016841F40041016020687E
:100FC000016821F40041016000F0C2FB4D4A6168F4
:100FD000914201D84C4900E04C49884201D201209D
:100FE00070BD4B492368B0FBF1F15E6826F03F0607
:100FF0000E435E606368934206D94FF4967359437B
:101000004FF47A73B1FBF3F12368491C1E6A26F092
:101010003F06314319626168914210D84900401E71
:10102000B0FBF1F2521CC2F30B02042A01D20420DD
:1010300022E0B0FBF1F0401CC0F30B001CE0A26802
:10104000F2B301EBC10303EB0116431EB3FBF6F34E
:101050005B1C43F480431B0549D092B301EBC102F2
:1010600002EB0111401EB0FBF1F0401CC0F30B007D
:1010700040F4804040F400402168CA694CF6FF7398
:101080009A431043C861D4E90710014320680268FD
:1010900022F0C00211430160D4E90301014320683A
:1010A000826848F2FF339A4311438160D4E9050115
:1010B00008432168CA6822F0FF021043C86001E0BB
:1010C0000EE016E02068016841F00101016025642E
:1010D000202084F83D00256384F83E50002070BD38
:1010E00001EB4106431EB3FBF6F35B1CB3E70120A3
:1010F000C2E701EB4101401EB0FBF1F0401CC0F320
:101100000B00B7E7A086010080841E0000093D00A7
:1011100040420F002DE9FF4F81B089460446FFF79A
:101120002FFF054694F83D004FF0010820287DD19F
:101130001923012250492046009501F009FB00289F
:1011400074D194F83C00012870D0012084F83C0050
:1011500020680168C90703D1016841F001010160FD
:101160002068016821F400610160242084F83D00BA
:10117000002626644148E0624FF0011B20272068CA
:10118000016841F4807101600095002259462046B3
:10119000049B01F0DDFA50B120680068C00502D55B
:1011A0004FF400702064032005B0BDE8F08F216883
:1011B00009F0FE000861FFF7E3FE21680546486973
:1011C0004969C0F34000C1F380214FF0A00A0FE04D
:1011D000FFF7D6FE411B0498814200D808B984F875
:1011E0003DA0216848694969C0F34000C1F38021EE
:1011F00094F83D20A02A02D008B90029E8D084F84C
:101200003D7020684169C943890716D4016841F4DB
:101210000071016020684169806919230122164923
:101220002046009501F094FAB8B900E021E084F876
:101230003D7084F83C600020B6E7016841F400711D
:10124000016021686FF480604861192301220A4916
:101250002046009501F07CFA08B10120A4E703982C
:1012600008F1010880458AD384F83D7084F83C6019
:10127000F3E7022098E70000020010000000FFFFE3
:101280002DE9F84F1F4690468A460446DDF828901F
:10129000FFF776FE054694F83D0020287FD11923FC
:1012A000012240492046009501F052FA002876D1EB
:1012B00094F83C00012872D0012084F83C0020689A
:1012C0000168C90703D1016841F00101016020688C
:1012D000016821F400610160212084F83D001020A4
:1012E00084F83E0000262664C4F824806785608D5B
:1012F00020852D48E0622B464A465146204601F0A3
:10130000B3F990B9206841698069009036E02A46B7
:101310004946204601F09BFA50B1206C042804D1C4
:101320002068016841F4007101600120BDE8F88F78
:10133000606A216800780861606A401C6062618DA3
:10134000491E6185218D491E89B221852268536914
:10135000DB435B070BD451B100781061606A401C1D
:101360006062608D401E6085208D401E20852A466B
:101370004946204601F0C6F90028CED1208D00282C
:10138000C5D154F83D0B016841F400710160202083
:1013900004F81E09E67766770020C7E7FFE702201A
:1013A000C4E70000020010000000FFFF10B586B087
:1013B0000021009101910291039100680F49884238
:1013C0001AD10F4CA06940F00800A061A0696946DD
:1013D00000F008000490C02000901220019003202B
:1013E00003900848FFF7CAFCE06940F40010E06190
:1013F000E06900F40010049006B010BD00540040F5
:1014000000100240000C014002488168027811443B
:101410008160704748000020074810B5016841F01E
:1014200010010160032000F075F8002000F006F8BC
:1014300000F024F8002010BD0020024070B50D4DD2
:1014400004464FF47A712878B1FBF0F00A49096834
:10145000B1FBF0F000F08AFD48B9102C07D2002251
:101460002146501E00F036F800206C6070BD01204F
:1014700070BD000048000020540000200C4808B552
:10148000816941F001018161816901F001010091EF
:10149000C16941F08051C161C06900F08050009085
:1014A0000448416821F0E06141F00071416008BDED
:1014B0000010024000000140002809DB00F01F027C
:1014C000012191404009800000F1E020C0F80011A6
:1014D00070470000F0B40E4B1B680C46C3F30223A8
:1014E000C3F10705042D00D90425191D072901D2D0
:1014F000002300E0DB1E012606FA05F1491E21400B
:1015000099409E40761E16403143F0BC02F08EB8E2
:101510000CED00E0064900F0070208684FF6FF03F3
:10152000184040EA0220034A104308607047000058
:101530000CED00E00000FA052DE9F84305460078BF
:10154000354CC00754D0E0690026C00008D4E069DB
:1015500040F08050E061E069012600F0805000908A
:101560002E480168C90512D40168804641F4807193
:101570000160FFF705FD074605E000BFFFF700FD2E
:10158000C01B642823D8D8F80000C005F6D5206A0F
:1015900010F4407021D0A98801F4407181421CD020
:1015A000206A1F49012220F440700A6000220A606C
:1015B0002062C00711D0FFF7E3FC074641F28838EC
:1015C00008E000BFFFF7DCFCC11B414502D9032046
:1015D000BDE8F883206A8007F4D5206A696820F4A2
:1015E0004070084320621EB1E06920F08050E06145
:1015F0002878800705D56068A96820F44040084332
:1016000060602878C00605D56068E96820F480002D
:10161000084360600020DBE70010024000700040DB
:10162000400442422DE9F0470F46050061D0434E89
:10163000306800F00700B84209D2306820F0070097
:1016400038433060306800F00700B84251D1286854
:101650003B4C810712D5400703D5606840F4E06039
:1016600060602878000703D5606840F460506060CF
:101670006068A96820F0F000084360602878C0071F
:1016800028D06868012810D02168022810D0890766
:1016900000292EDA616821F0030101436160FFF740
:1016A0006FFC804641F288390DE021688903EFE73D
:1016B0008901EDE7FFF764FCA0EB0801494502D979
:1016C0000320BDE8F0876068696800F00C00B0EBAB
:1016D000810FEFD1306800F00700B8420BD93068B5
:1016E00020F0070038433060306800F00700B8424F
:1016F00001D00120E5E72878400705D56068E96852
:1017000020F4E060084360602878000706D5606830
:10171000296920F4605040EAC100606000F028F8B8
:101720006168084AC1F30311515CC840064908606A
:1017300006480068FFF782FE0020C2E70020024052
:10174000001002401A5D0008540000204C000020E8
:101750000448054900684968044AC1F30221515C04
:10176000C840704754000020001002402A5D000865
:1017700012A185B00FC98DE80F0014A0144A0068AB
:1017800004905168134801F00C03042B10D0082B6F
:101790000ED1C1F38343C9031DF803000AD5516874
:1017A00004AAC1F34041515C0A4A5043B0FBF1F036
:1017B00005B0704708494843FAE7000002030405F2
:1017C000060708090A0B0C0D0E0F1010010200008D
:1017D0000010024000127A0000093D002DE9F84F88
:1017E000040070D02078C04DC00749D06868C0F3AD
:1017F0008100012807D06868C0F38100022809D160
:101800006868C00306D52868800339D56068002859
:10181000E7D035E06068B0F5803F0BD010B1B0F58F
:10182000A02F11D0286820F480302860286820F488
:10183000802002E0286840F480302860606890B121
:10184000FFF79EFB06460AE0286840F480202860E7
:10185000F0E700BFFFF794FB801B642873D828686B
:101860008003F7D50CE0FFF78BFB064605E000BFD1
:10187000FFF786FB801B6428F0D828688003F7D424
:1018800020789A4E80074FF001094FF0000839D5B3
:10189000686810F00C0F07D06868C0F38100022858
:1018A00009D16868C00306D42868800714D5206968
:1018B000012808D110E02069B0B1C6F80090FFF708
:1018C0005FFB074605E00AE1FFF75AFBC01B022851
:1018D000C4D828688007F7D52868616920F0F80027
:1018E00040EAC10028600DE0C6F80080FFF748FB21
:1018F000074604E0FFF744FBC01B022823D82868F2
:101900008007F7D4207800072CD57948A169D9B190
:10191000C0F80090FFF734FB074604E0FFF730FB08
:10192000C01B02280FD8686A8007F7D571484FF4AA
:10193000FA510068B0FBF1F0009000BF0098411E22
:101940000091FAD20EE080E0C0F80080FFF718FBAB
:10195000074604E0FFF714FBC01B022875D8686A2D
:101960008007F7D42078400760D5E8690027C000D9
:1019700008D4E86940F08050E861E869012700F088
:10198000805000905C480168C90513D40168834603
:1019900041F480710160FFF7F3FA824606E000BF70
:1019A000FFF7EEFAA0EB0A0064284ED8DBF800003F
:1019B000C005F5D5E06801280AD008B1052813D084
:1019C000286A20F001002862286A20F0040002E062
:1019D000286A40F001002862E06841F2883B98B133
:1019E000FFF7CEFA82460BE0286A40F00400286236
:1019F000EEE700BFFFF7C4FAA0EB0A0159455AD839
:101A0000286A8007F6D50CE0FFF7BAFA824605E0AF
:101A1000FFF7B6FAA0EB0A0159454CD8286A8007AF
:101A2000F6D41FB1E86920F08050E861E06988B31E
:101A30006968C1F38101022944D00228C6F8608098
:101A400004D0FFF79DFA044638E034E0FFF798FA37
:101A5000074604E0FFF794FAC01B02282BD8286839
:101A60008001F7D4206AB0F5803F05D16868A1688D
:101A700020F4003008436860D4E90801084369682D
:101A800021F4741108436860C6F86090FFF778FA93
:101A9000044606E025E000BFFFF772FA001B0228AB
:101AA00009D828688001F7D51BE000BFFFF768FA66
:101AB000001B022802D90320BDE8F88F28688001A6
:101AC000F4D40EE00128F7D06868226A00F480316F
:101AD000914204D1616A00F47010884201D0012063
:101AE000EAE70020E8E70000001002400000424260
:101AF00080044242540000200070004090F85100E1
:101B0000704770B5040009D0606A002540B12561B6
:101B10006561A56294F8510040B10CE0012070BDF0
:101B20006068B0F5827FF4D0E561F2E784F8505048
:101B3000204600F03FF8022084F851002068016838
:101B400021F040010160A088218900F4827001F435
:101B500004410843A18901F400610843217C01F09C
:101B600002010843217D01F001010843218B01F4AA
:101B700000710843217F01F03801084394F82010D8
:101B800001F080010843218D01F4005108432168D0
:101B90000860A069042101EA1040216848602068BB
:101BA000C16921F40061C1616565012084F85100BB
:101BB000002070BD30B585B00024009401940294DB
:101BC000039400681449884223D11448816941F480
:101BD00080518161816901F480510491816941F0F2
:101BE0000401816180690E4D00F004000490A02082
:101BF0000090022001900320039069462846FFF7D9
:101C0000BDF84020CDE90004694628460294FFF75C
:101C1000B5F805B030BD00000030014000100240B2
:101C2000000801402DE9F84F044690F850000027C5
:101C30001D461646894601280DD04FF0010B84F849
:101C400050B0FFF79DF9804694F85100BA4601283C
:101C500004D0022793E00220BDE8F88FB9F1000F0D
:101C600073D0002E71D0032084F85100C4F854A022
:101C7000C4F83090A686E686C4F838A0A4F83CA044
:101C8000A4F83EA0C4F844A0C4F840A0A068B0F5F1
:101C9000004F09D12068016821F0400101602068EF
:101CA000016841F48041016020680168490603D45D
:101CB000016841F040010160E068B0F5006F6068C4
:101CC00003D030B3012E24D041E008B1012E1CD145
:101CD000206B21680088C86006E020688168890759
:101CE00009D5216B0988C160206B801C2063E08EC0
:101CF000401EE08609E0FFF743F9A0EB0800A84288
:101D000002D3681C01D031E07DB3E08E0028E4D11D
:101D100020E0206B21680078087306E02068816865
:101D2000890709D5216B09780173206B401C20635A
:101D3000E08E401EE0860AE0FFF722F9A0EB0800E3
:101D4000A84203D3681C02D010E017E06DB1E08E0A
:101D50000028E3D142462946204600F0EFFE08B1B4
:101D600020206065A06818B106E0FFE7032706E0C1
:101D70002068C16880680090606D00B1012784F818
:101D800051B084F850A0384666E72DE9F84F044674
:101D900090F8500000270A9E1D4692468B464FF051
:101DA000010901280ED0012084F85000FFF7E8F85F
:101DB000804694F85100616801280CD0B1F5827F0B
:101DC00007D102E00220BDE8F88FA16809B9042814
:101DD00001D00227C2E0BBF1000F27D0BAF1000FFB
:101DE00024D01DB394F85100042802D0052084F8B3
:101DF000510000206065C4F838A0E587A587C4F8C5
:101E000030B0E586A58620646064206801684906D4
:101E100003D4016841F040010160E068B0F5006F53
:101E2000606805D0E8B3012D46D07FE0012795E03A
:101E300008B1012D39D1206B21680088C860206B62
:101E4000801C2063E08E401EE0862EE020688168C2
:101E500089070FD5E18E69B1B9F1010F0AD1216B64
:101E60000988C160206B801C2063E08E401EE086E4
:101E70004FF0000920688168C9070CD0E18F51B18B
:101E8000C068A16B0880A06B801CA063E08F401E1F
:101E9000E0874FF00109FFF773F8A0EB0800B042AC
:101EA00000E009E001D3701C50D1E08E0028CDD1B4
:101EB000E08F0028CAD13FE0206B216800780873CA
:101EC000206B401C2063E08E401EE0862EE02068E0
:101ED000816889070FD5E18E69B1B9F1010F0AD187
:101EE000216B09780173206B401C2063E08E401E3B
:101EF000E0864FF0000920688168C9070CD0E18FA7
:101F000051B1C068A16B0870A06B401CA063E08F4A
:101F1000401EE0874FF00109FFF732F8A0EB080000
:101F2000B04202D3701C01D010E07EB1E08E0028D8
:101F3000CDD1E08F0028CAD142463146204600F07C
:101F4000FDFD28B101272020606507E0032705E09B
:101F5000A06818B92068C16880680090012084F8E2
:101F60005100002084F8500038462CE710B5401E80
:101F7000B0F1807F01D3012010BD4FF0E0246061FB
:101F80000F21601701F052FB0020A06107202061A3
:101F9000002010BD7047704770B590F83C20012AB2
:101FA00026D0012480F83C40022280F83D200368BE
:101FB0005A689D6822F070060A6832435A600D4BD9
:101FC00002689A4208D0B2F1804F05D00A4B9A427B
:101FD00002D00A4B9A4204D1496825F08003194384
:101FE000916080F83D40002180F83C10084670BDAB
:101FF000022070BD002C0140000400400008004099
:1020000010B5040003D094F83D0010B107E00120A2
:1020100010BD002084F83C00204600F01FF802208C
:1020200084F83D00211D206801F02CFA012084F87D
:10203000460084F83E0084F83F0084F8400084F8AD
:10204000410084F8420084F8430084F8440084F896
:10205000450084F83D00002010BD000000B585B0AB
:102060000021009101910291039100681249884278
:102070001FD11248816941F400618161816901F4D5
:1020800000610491816941F00401816180696946C0
:1020900000F0040004904FF4807000900848FEF7B0
:1020A0006DFE002201211B20FFF714FA1B20FFF711
:1020B00003FA05B000BD0000002C014000100240F2
:1020C0000008014070B5044690F83C00012817D084
:1020D000012584F83C50022084F83D002068826885
:1020E00022F0770222F47F4282600868502830D0C4
:1020F0000DDC20284DD005DC98B310283BD148E0FA
:10210000022070BD302844D0402834D139E0602806
:1021100028D0702806D0B0F5805F2CD0B0F5005FD5
:1021200029D10AE0CB68D1E90121206801F0EDF95D
:102130002068816841F0770109E0CB68D1E901218D
:10214000206801F0E2F92068816841F480418160F3
:1021500011E0CA684968206801F0E9F95021206857
:1021600007E016E0CA684968206801F01DFA60219E
:10217000206801F0D4F984F83D50002084F83C0038
:1021800070BDCA684968206801F0D1F94021206813
:10219000EFE7226801461046EBE7000070B5007FCC
:1021A000012823D1264C274D207870B101281DD15C
:1021B0000021284600F02AFA2061296800264E6294
:1021C000E168884213D9401A19E000211D4800F047
:1021D0001DFAE060012020702868016A21F00A01E0
:1021E00001622868016A41F00201016270BD81420A
:1021F00001D8606904E04FF6FF72511A084460612B
:10220000FEF7CDF9104A114BFEF73BF94FF0FF32C4
:10221000FEF7A9F900220E4BFEF78CF8FEF7E0F965
:10222000A06126702868016A21F00A01016228680D
:10223000016A0162C16821F00201C16070BD000045
:1022400018000020DC060020C1CAA145B6F3D53F26
:10225000000034402DE9F041054690F83C000C4662
:10226000012836D0012085F83C008AB3042A42D0E8
:102270002868082A51D0D4E90023E168066A26F4C8
:1022800080560662C669076A26F4407646EA03234A
:102290004FF6FF7606EA013123F4704319434FF4F9
:1022A000005627F4005306EA02321A43C161026263
:1022B0002868C16921F44061C1612868C169A268C8
:1022C00041EA0221C161002085F83C00BDE8F081AF
:1022D00001E00220FAE7D4E90012E368286801F07F
:1022E00037F92868816921F00C01816128688169CA
:1022F000A26811430FE0D4E90012E368286801F0F6
:1023000065F92868816921F44061816128688169E3
:10231000A26841EA02218161D5E7D4E90027267B42
:10232000016A21F480710162C169036A21F003012D
:10233000394321F0F00731074FF4007647EA116185
:1023400023F4007306EA02221A43C161026228687C
:10235000C16921F00C01C1612868C169A2681143FB
:10236000B0E710B5040003D094F83D0010B107E0C9
:10237000012010BD002084F83C00204600F01EF82B
:10238000022084F83D00211D206801F07BF8012027
:1023900084F8460084F83E0084F83F0084F840004A
:1023A00084F8410084F8420084F8430084F8440033
:1023B00084F8450084F83D00002010BD70470000FF
:1023C00010B5044651B104290DD0082910D094F855
:1023D000410094F84520012811D10EE094F83E0008
:1023E00094F84220F7E794F83F0094F84320F2E78E
:1023F00094F8400094F84420EDE7012A01D0012030
:1024000010BD022051B1042911D0082918D084F838
:10241000410084F845000C291BD136E084F83E00C9
:1024200084F842002068C26842F0020210E084F89A
:102430003F0084F843002068C26842F0040207E0CD
:1024400084F8400084F844002068C26842F0080222
:10245000C2600122206801F04BF80E4920688842D2
:1024600008D0B0F1804F05D00B49884202D00B490B
:10247000884204D1816801F00701062903D0016870
:1024800041F001010160002010BD2068C26842F0E7
:102490001002DDE7002C014000040040000800406D
:1024A00070B50446006801694FF00005C94389070B
:1024B00015D4C168C943890711D4E91E01610120FF
:1024C0002077206880698007204602D0FFF766FEEB
:1024D00004E000F098F8204600F096F82577206890
:1024E0000169C943490717D4C168C943490713D4CF
:1024F0006FF004010161022020772068806910F4E8
:10250000407F204602D0FFF749FE04E000F07BF850
:10251000204600F079F8257720680169C94309074A
:1025200016D4C168C943090712D46FF008010161CC
:10253000042020772068C0698007204602D0FFF77A
:102540002DFE04E000F05FF8204600F05DF82577EE
:1025500020680169C943C90617D4C168C943C906BF
:1025600013D46FF010010161082020772068C06942
:1025700010F4407F204602D0FFF710FE04E000F088
:1025800042F8204600F040F8257720680169C943E9
:10259000C90708D1C168C943C90704D1891E0161AF
:1025A000204600F032F820680169C943090609D4C1
:1025B000C168C943090605D46FF080010161204656
:1025C000FFF7E8FC20680169C943490609D4C168DE
:1025D000C943490605D46FF040010161204600F06F
:1025E0002AF820680169C94389060BD4C168C94328
:1025F000890607D46FF0200101612046BDE87040D4
:10260000FFF7C9BC70BD7047704770470246002095
:1026100041B1042909D008290AD00C2901D1106838
:10262000006C70471068406B70471068806B704793
:102630001068C06B70477047FEE701684A69D24373
:1026400052050FD46FF480624A61002140F8301FB8
:10265000202242738173026942F004020261017315
:102660000120704700207047F8B50446C06A1E4636
:102670000D461746082807D0012805D010F5803FE1
:1026800002D0206B122804D12068016841F48071C7
:102690000160134600224FF001112046009600F021
:1026A00057F840B120680068C00502D54FF40070AB
:1026B00020640320F8BD2069B0F5804F0ED00620BD
:1026C000216800EAD51040F0F000086133463A4630
:1026D0000B49204600F070F878B902E005F0FE00E2
:1026E00000E0E8B221680861054933463A46891F8F
:1026F000204600F061F80028DCD00120F8BD000081
:102700000800010070B516460D4604460DE020464F
:10271000FFF793FF08B1012070BD681C05D0FEF7DC
:102720002FFC801BA84207D835B120684069C04300
:102730004007ECD4002070BD002044F8300F202169
:102740006173A073216941F0200121612073E2E7E8
:102750002DE9F0471E4690460D460446C1F3074753
:10276000DDF8209008E0701C06D0FEF709FCA0EB15
:102770000900B0420FD876B12068012F18D08069C7
:1027800025EA00000004000C14D000214145EAD0E5
:102790000020BDE8F087002044F8300F202161734D
:1027A000A073216941F02001216120730120F0E72D
:1027B0004069E5E70121E9E72DE9F0479A469146AE
:1027C0000E46044600254FF02008C1F3074725E0D8
:1027D00020684069C043400514D42068016841F472
:1027E0000071016021686FF480604861256384F89E
:1027F0003D8084F83E50206C40F00400206484F852
:102800003C501FE0B9F1FF3F08D0FEF7B9FBA0EB49
:102810000A0149450CD8B9F1000F09D02068012FF1
:1028200013D0806926EA00000004000C0BD0CFE72B
:1028300044F8305F84F80D80A573206940F02000D3
:10284000206125730120BDE8F0874069EAE770B593
:1028500016460D4604460DE02046FFF7EEFE08B191
:10286000012070BD681C05D0FEF78AFB801BA842C2
:1028700007D835B120684069C0430006ECD4002079
:1028800070BD002044F8300F20216173A0732169CE
:1028900041F0200121612073E2E700003EB50021F4
:1028A0001148009101910F4A029102600124816058
:1028B000047301754FF460220461C2614160FEF748
:1028C00023F908B1FEF79CF807200094CDE90140F8
:1028D00069460548FEF796F8002801D0FEF790F803
:1028E0003EBD000000240140000600202DE9F0411B
:1028F00086B00024294800940194029403948169CD
:1029000041F020018161816901F020010491816918
:1029100041F004018161816901F004010491816940
:1029200041F00801816180691D4F00F0080040F608
:1029300018260490002231463846FEF71CFBDFF8CB
:102940006480002220214046FEF715FB0420009001
:1029500015480225CDE9010569463846FEF70EFA0D
:1029600000960126694638460196CDE90245FEF7F4
:1029700005FA2020CDE9000669464046CDE902452A
:10298000FEF7FCF9002211460820FEF7A3FD0820FF
:10299000FEF792FD06B0BDE8F08100000010024095
:1029A00000080140000C0140000011100D4810B556
:1029B0000B4901600C49416000214FF48042816065
:1029C000C0E9031241618161C1610162FEF7DEFA73
:1029D000002803D0BDE81040FEF712B810BD00007B
:1029E0000054004030060020801A0600104810B540
:1029F0000E4901604FF48271416000218160C16025
:102A00004FF400720161C0E905120822C0E90721F4
:102A1000416281620A21C162FFF773F8002803D086
:102A2000BDE81040FDF7ECBF10BD000000300140D4
:102A30008406002010B58AB000242348049405942D
:102A400006940794089409940094019402941D49F3
:102A5000039401601F21C0E901144FF6FF71C0E922
:102A6000031444618461FFF7CBFA08B1FDF7C8FF96
:102A70004FF48050049004A91348FFF723FB08B1DA
:102A8000FDF7BEFF1048FFF76CFC08B1FDF7B8FF7B
:102A9000089408A90C480994FFF77EFA08B1FDF7DD
:102AA000AFFF0120CDE900400294002269460648AC
:102AB0000394FFF7CFFB002801D0FDF7A1FF0AB078
:102AC00010BD0000002C0140DC060020FEE770472E
:102AD0007047000010B5FDF70BFF0120FEF72EF93F
:102AE000CC20FDF72DFF4420FDF72AFF4FF448705E
:102AF000FEF724F9FDF7FCFE0F4CA0700120FEF755
:102B00001DF9CC20FDF71CFFBE20FDF719FFFDF7D6
:102B1000BDFEE070FDF7BAFE2071E17841EA0020C9
:102B20002081FDF737FD6FF00301FDF7F7FBFDF79F
:102B300043FD607110BD00001800002038B50B4641
:102B4000009204460022802100F008F8002804D0FA
:102B5000606D40F020006065032038BD2DE9F8432A
:102B60001E46914688460446089DFEF709FA401B1A
:102B7000351AFEF705FA074625480068C0F3CB3042
:102B8000684338E0701C37D0FEF7FAF9C01BA84242
:102B900003D215B1009860B32CE02068416821F0A1
:102BA000E00141606068B0F5827F0BD1A068B0F5AC
:102BB000004F02D0B0F5806F04D12068016821F089
:102BC00040010160A06AB0F5005F09D1206801688A
:102BD00021F4005101602068016841F40051016056
:102BE000012084F85100002084F850000320BDE843
:102BF000F8830025401E00902068816838EA0100B3
:102C000004D000214945BDD10020F0E70121F9E7BA
:102C10005400002070B5802813D2402911D20B4BEC
:102C2000012401F007051E79AC40094BC90800EBEF
:102C3000C1100EB132B101E0012A03D0195CA143E9
:102C4000195470BD195C2143FAE700001000002000
:102C50005800002028B1FF224FF480610248FDF7A0
:102C600083BA0022F8E7000058000020014A1080D3
:102C7000518070471000002010B500F0BBFF44F6F3
:102C80002063012278215448FEF744FA08B100205D
:102C900010BD40F6C210401EFDD1AE2200217820AA
:102CA00000F0AEFF20220021782000F0A9FF1022C2
:102CB0000021782000F0A4FFB0220021782000F04D
:102CC0009FFFC8220021782000F09AFF00221146C1
:102CD000782000F095FF10220021782000F090FF6E
:102CE00040220021782000F08BFF812200217820F3
:102CF00000F086FFFF220021782000F081FFA12252
:102D00000021782000F07CFFA6220021782000F02E
:102D100077FFA8220021782000F072FF3F220021D7
:102D2000782000F06DFFA4220021782000F068FFD9
:102D3000D3220021782000F063FF00221146782082
:102D400000F05EFFD5220021782000F059FFF0222C
:102D50000021782000F054FFD9220021782000F0D3
:102D60004FFF22220021782000F04AFFDA220021C2
:102D7000782000F045FF12220021782000F040FF6B
:102D8000DB220021782000F03BFF20220021782068
:102D900000F036FF8D220021782000F031FF142250
:102DA0000021782000F02CFFAF220021782000F0D5
:102DB00027FF2E220021782000F022FF0020FFF7BD
:102DC00049FF00F071F80548002101804180012190
:102DD0004171084610BD00003006002010000020A0
:102DE0002DE9F047814625480D46924601882A780C
:102DF0001144802905D280464088697808444028DB
:102E000002D30020BDE8F08700262AE0A9F12001C6
:102E100001FB00606A68002432F810701DE000BFFA
:102E200007FA04F0000409D5B8F80210B8F8000059
:102E30003144204489B280B252460BE0BAF1000F0F
:102E40001AD00022B8F80210B8F80000314420442B
:102E500089B280B2FFF7DEFE641C2878A042DFD87A
:102E6000761C6878B042D1D8B8F800102A78484665
:102E70001144A8F80010C5E70122E3E71000002084
:102E800070B515460E46044609E02A463146FFF75E
:102E9000A7FF2178884201D0C8B270BD641C207899
:102EA0000028F2D1C0B270BD70B5104D002400BF33
:102EB00004F1B000C2B20021782000F0A1FE00228F
:102EC0001146782000F09CFE10220021782000F0AE
:102ED00097FE05EBC41280234021782000F0A0FE6D
:102EE000641CE4B2082CE3D370BD0000580000203D
:102EF000704770B515460E460446017200F0D6F9CB
:102F000084224D21204600F022F9FF222421204670
:102F100000F01DF901224021204600F018F93F225F
:102F20001121204600F013F9204600F03DF9324609
:102F30002221204600F00BF90F21204600F0F8F87E
:102F400002460D21204600F002F90522012120460B
:102F500000F0FDF8002084F80A011821204600F056
:102F6000E7F8400703D503206072012070BD6D1E95
:102F700003D0012000F0A7F9EFE7206800F0AFF9D7
:102F8000204600F093F9002070BD70B516460C463F
:102F90000546017200F08AF984224D21284600F08E
:102FA000D6F800222421284600F0D1F84122402101
:102FB000284600F0CCF8284600F0F6F8F722112158
:102FC000284600F0C4F822462221284600F0BFF827
:102FD0000E21284600F0ACF802460D21284600F0EC
:102FE000B6F82221284600F0A3F8A04203D102201F
:102FF0006872012070BD761EF3D1286800F06FF969
:10300000284600F053F9002070BD70B504460A3020
:103010004FF480710646FDF7AEF81021204600F00F
:1030200087F802460D21204600F091F8A07990B172
:103030001321204600F07CF805462B46324600213D
:10304000204600F035F884F80A51204600F0ACF82C
:1030500094F80A0170BD257AEFE770B51D46134656
:103060000A460446002100F042F88B220121204646
:1030700000F06DF8206800F028F958B112212046C0
:1030800000F056F8204600F08FF8204600F0A2F934
:10309000012070BD6D1E03D0012000F014F9E9E796
:1030A000206800F01CF9204600F000F9002070BDF7
:1030B0002DE9F0411E4617460C460546012B14D952
:1030C0000021286800F051F92146286800F01FF916
:1030D000002404E000F02DF93855641CE4B228689F
:1030E000B442F7D3012100F040F9BDE8F0812DE9A9
:1030F000F0411E4617460C460546012B16D9002105
:10310000286800F032F944F08001286800F0FFF8E8
:10311000002405E0395D286800F0F9F8641CE4B289
:10312000B442F7D30121286800F01FF9BDE8F0810F
:1031300070B50446006800F0EAF8206800F0F9F87D
:1031400005460121206800F010F9284670BD70B5D1
:103150000D46044616460068002100F006F945F0C9
:103160008001206800F0D3F83146206800F0CFF8E5
:103170000121206800F0F9F870BD2DE9F047044600
:10318000DDE908891D4616460F46006800F0F7F88D
:1031900027716671A57184F8078084F8089020462D
:1031A000BDE8F04700F082B8FF221221FFF7CFBF41
:1031B0002DE9F0411C4615460F468046069E00F05C
:1031C00000F90F2000F07FF8404600F078F836490B
:1031D00007EB47004218032306214046FFF787FF0D
:1031E00031480921C01C425D4046FFF7B0FF0B2269
:1031F00011464046FFF7ABFF23220C214046FFF764
:10320000A6FF294D07270835E81D295D805D0629A1
:103210002BD0082101EB0010C2B21D214046FFF760
:1032200096FF285D1E2107EB0010C2B24046FFF753
:103230008EFFFF221F214046FFF789FF0022202139
:103240004046FFF784FF0C2221214046FFF77FFF15
:10325000012241214046FFF77AFF0021404688F8CD
:103260000A11BDE8F04100F0B5B8092101EB0010EA
:10327000C2B21D214046FFF76AFF285D1E2107EB01
:103280000010C2B24046FFF762FF31214046FFF70F
:103290004FFF00F0F80040F0050231214046FFF7F3
:1032A00056FF0C223721C1E7583C000808B5C17908
:1032B0000091837942790179FFF77AFF08BD88226E
:1032C0000121FFF744BFFDF739BD10B50189C06882
:1032D00089B2FDF743FE012800D0002010BD10B5D3
:1032E0000446012100F041F82088002281B2606884
:1032F000FDF741FE0120FFF7E6FF2088012281B2A1
:103300006068FDF738FE6420FFF7DDFF10BD13B5E0
:103310000446002100F029F84FF47A73012201A934
:10332000A069FEF77FFCA069FEF7E8FB0128FAD14F
:103330001CBD3EB5044600208DF808008DF8040041
:103340000146204600F011F84FF47A7000900123F6
:1033500001AA02A9A069FEF718FDA069FEF7CEFB3D
:103360000128FAD19DF804003EBD012905D00022B4
:10337000018A406989B2FDF7FEBD0122F8E710B568
:1033800004460121FFF7F1FF2088012281B2606825
:10339000BDE81040FDF7EFBD70B5054690F80A0195
:1033A00014460E46A04200D00446224605F10A010A
:1033B0003046FCF7C7FE0020305585F80A0120464C
:1033C00070BD10B5044608220121FFF7C0FE0020A1
:1033D000607210BD10B5044609220121FFF7B7FE47
:1033E0000120607210BD1FB50022CDE9001201213D
:1033F000CDE902126946FDF7C1FC1FBD1FB50022D1
:1034000000910121CDE90112022103916946FDF7E6
:10341000B5FC1FBDFDF7F8BF30B593B02821684655
:10342000FCF7A9FE14210AA8FCF7A5FE002402253A
:1034300001200F94049000951020059012944FF4F1
:10344000C010CDE908401194109407956846FEF726
:10345000C5F90F200A90CDE90B540D9401210AA85B
:103460000E94FEF7DFF80FA80F951194FEF764F89D
:1034700013B030BD704700000148FFF711B80000DD
:10348000DC060020F0B50268164B174C174D4FF0C4
:103490008047984205D0B84203D0A04201D0A8424C
:1034A00003D122F070064A683243984205D0B842F0
:1034B00003D0A04201D0A84203D122F44074CA68CC
:1034C00022434C6922F08002224302608A68C26271
:1034D0000A688262984201D1096901630121416150
:1034E000F0BD0000002C0140000400400008004036
:1034F00010B501F01F030121046A99408C43046256
:10350000016A9A401143016210BD10B5846842EA15
:10351000032224F47F440A432243826010BD826860
:1035200022F070020A4342F007018160704710B533
:10353000036A046A24F001040462846924F0F0043C
:1035400044EA021423F00A020A438461026210BDB5
:1035500070B5046A24F0010404628469056A0F4EA0
:10356000B04208D0B0F1804F05D00D4EB04202D02D
:103570000C4EB04203D124F00304144301E044F0A4
:1035800001041A0724F0F00444EA126225F00A0349
:1035900001F00A0119438261016270BD002C0140F3
:1035A000000400400008004010B5036A23F0100337
:1035B00003628369046A23F4704343EA023224F00D
:1035C000A00343EA01118261016210BD30B5046AB3
:1035D00024F0100404628469056A24F4407444EA07
:1035E000022222F470444FF6FF7202EA03322243B1
:1035F000A02425F0A00304EA0111194382610162AD
:1036000030BDFEE70FB4084B10B504A902AA039819
:1036100000F02CF8044602A9002000F0C8F920466A
:1036200010BC5DF814FB0000AF3900080907090E53
:10363000002804DB00F1E02080F80014704700F05F
:103640000F0000F1E02080F8141D704702E008C868
:10365000121F08C1002AFAD170477047002001E00C
:1036600001C1121F002AFBD1704700002DE9FF4F56
:103670008BB088460546002606E025280BD0DDE9FC
:103680000D1290476D1C761C28780028F5D10FB0DC
:103690003046BDE8F08F0024A146A2460122AE4983
:1036A00000E0044315F8013F203B02FA03F0084212
:1036B000F7D128782A2810D06FF02F022878A0F1AF
:1036C0003001092915D809EB890102EB410144F0C9
:1036D000020400EB01096D1CF0E758F8041B5FEAD7
:1036E000010903D544F40054C9F1000944F002046F
:1036F0006D1C28782E2817D115F8010F44F004040A
:103700002A280ED06FF02F022878A0F13001092965
:103710000AD80AEB8A0102EB410100EB010A6D1C99
:10372000F2E758F804AB6D1C28786C280FD006DC43
:103730004C2817D068280DD06A2814D104E07428CA
:1037400010D07A280FD10DE044F400140AE044F4BC
:10375000801401E044F440146978814202D104F5F8
:1037600080146D1C6D1C2878692865D006DC002843
:103770008DD0632827D0642806D15DE06E2808D05C
:1037800073282AD0752877D0DDE90D129047761C72
:10379000E0E0C4F30250022809D003280DD0D8F885
:1037A000001004280DD00E6008F10408D2E0D8F80B
:1037B0000010F217C1E90062F6E7D8F800100E8099
:1037C000F2E70E70F0E718F8041B8DF800100020E7
:1037D0008DF80100EB46012003E058F804BB4FF0E0
:1037E000FF3061074FF0000701D40AE07F1C574506
:1037F0000DDA8742FADB1BF807100029F6D106E044
:103800007F1C8742FCDB1BF807100029F8D1DDE99B
:103810000D23A9EB07008146214600F0B1F83044A2
:10382000C61904E0DDE90D121BF8010B90477F1E5D
:10383000F8D22146484688E058F8040BC4F30251F8
:103840004FF00A0B032900D100B2042900D140B285
:10385000002802DA40422D2102E0210505D52B2166
:103860008DF82410012104E006E0E10710D02021AA
:10387000F6E708AF089113E058F8040BC4F30251BF
:103880004FF00A0B032900D180B2042900D1C0B245
:103890000021EEE75946FCF7BCFE303107F8011D68
:1038A0000028F7D1ADEB070000F1200B600702D52F
:1038B00024F4803401E04FF0010ADA4502DDAAEB7E
:1038C0000B0000E00020824600EB0B010898014449
:1038D000A9EB01000A90E00306D4DDE90D2321469F
:1038E0000A9800F04DF806444FF0000908E009A9D5
:1038F00011F80900DDE90D12904709F10109761C64
:1039000008998945F3DBE0030CD5DDE90D23214659
:103910000A9800F035F8064404E0DDE90D12302085
:103920009047761CBAF10001AAF1010AF5DC05E026
:10393000DDE90D1217F8010B9047761CBBF1000171
:10394000ABF1010BF4DC0A982146DDE90D2300F010
:1039500005F806446D1C97E6092801002DE9F041A1
:10396000044600251E461746880404D405E039465F
:103970002020B0476D1C641EF9D52846BDE8F081B3
:103980002DE9F041044600251E469046C80301D5A6
:10399000302700E02027880404D505E0414638465A
:1039A000B0476D1C641EF9D52846BDE8F0810A6851
:1039B000531C0B6010707047044900220B685A6258
:1039C00009684A6A8242FCD370470000DC06002086
:1039D0001CB5FDF721FDFFF71FFDFEF787FFFFF781
:1039E00029F8FEF7E3FFFFF701F8FEF757FF002184
:1039F0005B48FEF7E5FC5B48FDF740F9FFF73CF953
:103A00005A4859490422C0E902211022C0E9042180
:103A10004160574A8261082100F11C020160106078
:103A20000A20CDE90010514804231A4600211C3019
:103A3000FFF7A3FB4D484FF4FA6210211C30FFF74B
:103A400058FADFF830814FF020090027A8F1200450
:103A50004FF47A766078012879D1FFF73BF800259A
:103A600000F0A4F84620FDF769F96D1C052DF7DB81
:103A7000A269642A08D240A13E48FFF7C3FD88F836
:103A8000029088F803900DE0A2F16400B0F5617F28
:103A9000384839A104D2FFF7B5FD88F8039001E05A
:103AA000FFF7B0FD0025E7612E48FDF729F8FCF788
:103AB00071FDE169FCF76AFB6D1CE0610A2DF3DB27
:103AC0002E4D2946FCF7BAFB2D49FCF7E9FB2946A8
:103AD000FCF7B1FBFCF770FDA0710A210846FFF767
:103AE000C5F80122274928A0FFF7CAF91E21084678
:103AF000FFF7BCF8012227491E48FFF7C1F9FFF77D
:103B0000D3F9A0790090637923A12648A269FFF731
:103B100079FD0025C4F82400144894F82410324696
:103B20001C30FFF732FAA0621E4994F82420334675
:103B3000A1F58670FFF791FA6D1CA062032DEBDBF7
:103B40000A48324610211C30FFF7D3F96770202154
:103B50001548FDF708FA3046FDF7F0F87AE700005F
:103B6000DC06002000060020000801405804002068
:103B70008406002038000020256400000000C842B0
:103B800000781B470000002044697374616E636510
:103B900000000000080000204E313A25643A2564F8
:103BA0003A25640080050020000C014070B50F4DDF
:103BB0004FF40074002221462846FDF7DCF902206C
:103BC000FFF7FAFE012221462846FDF7D4F90A2024
:103BD000FFF7F2FE002221462846FDF7CCF9044803
:103BE0000068C16841F00201C16070BD0008014079
:103BF000DC0600200148401EFDD1704790D0030034
:103C00001CB502238DF804100A2100918DF80520BF
:103C1000014601AA0148FDF733FB1CBD3006002018
:103C200070B5C2B000248DF8041001A904E0155D40
:103C30000E19641C7570E4B29C42F8D30A210091FD
:103C40005B1C01469BB201AA0248FDF719FB42B07A
:103C500070BD0000300600206C8000FFFCF9F68883
:103C6000060708090A0B0C000102030405060708F1
:103C7000090000000000000000000000000000003B
:103C80000000000000000000000000000000000034
:103C90000000000000000000000C000C000C000CF4
:103CA000000C000C000C000C000C000C000C0000C0
:103CB000000C000C0000000000000000001B001BB6
:103CC000001B001B001B00000000000000000000A3
:103CD00000000000000000000000000000000000E4
:103CE0008019801980198019C07FC07F8019003326
:103CF000C07FC07F0033003300330033000000007A
:103D000000000000001E003F807580650074003CCC
:103D1000001E00078005806580658075003F001EDD
:103D20000004000400000000007000D840D8C0D893
:103D300080D900730006000C801BC036C066C046E8
:103D4000C00680030000000000000000001E003FCD
:103D5000003300330033001E000CC03CC06680639B
:103D600080618063C03E801C0000000000000000F5
:103D7000000C000C000C000C000C00000000000007
:103D80000000000000000000000000000000000033
:103D90000000800000010003000600060004000C83
:103DA000000C000C000C000C000C000400060006C7
:103DB000000300018000002000100018000C000C1F
:103DC00000040006000600060006000600060004C7
:103DD000000C000C0018001000200000000C002D4A
:103DE000003F001E00330000000000000000000043
:103DF00000000000000000000000000000000000C3
:103E000000000000000C000C000C000CC0FFC0FF04
:103E1000000C000C000C000C000000000000000072
:103E20000000000000000000000000000000000092
:103E3000000000000000000000000000000C000C6A
:103E40000004000400080000000000000000000062
:103E50000000000000000000001E001E0000000026
:103E60000000000000000000000000000000000052
:103E70000000000000000000000000000000000042
:103E800000000000000C000C00000000000000001A
:103E90000003000300030006000600060006000CF5
:103EA000000C000C000C00180018001800000000A6
:103EB00000000000001E003F0033806180618061CF
:103EC000806D806D8061806180610033003F001EE5
:103ED00000000000000000000006000E001E00367A
:103EE0000026000600060006000600060006000682
:103EF000000600060000000000000000001E003F59
:103F0000807380618061800100030006000C00184E
:103F100000300060807F807F000000000000000013
:103F2000001C003E006300630003000E000E00034F
:103F30008001800180618073003F001E000000004E
:103F4000000000000006000E000E001E001E0016FD
:103F5000003600360066807F807F0006000600067F
:103F60000000000000000000007F007F0060006093
:103F70000060006E007F806380018001806180733B
:103F8000003F001E0000000000000000001E003F77
:103F9000803380610060006E007F8073806180618B
:103FA00080618033003F001E000000000000000020
:103FB000807F807F80010003000300060006000C64
:103FC000000C000C00080018001800180000000089
:103FD00000000000001E003F8063806180610021BE
:103FE000001E003F8061806180618061003F001E93
:103FF0000000000000000000001E003F0073806110
:10400000806180618073803F801D800180610073CA
:10401000003F001E00000000000000000000000043
:1040200000000000000C000C000000000000000078
:1040300000000000000C000C000000000000000068
:1040400000000000000000000000000C000C000058
:104050000000000000000000000C000C0004000440
:104060000008000000000000000080008003000E37
:10407000003800600038000E80038000000000005F
:104080000000000000000000000000000000000030
:10409000807F807F00000000807F807F0000000024
:1040A0000000000000000000000000000000000010
:1040B000000000400070001C000780010007001C89
:1040C0000070004000000000000000000000000040
:1040D000001F803FC071C060C000C00180030007A6
:1040E000000E000C000C0000000C000C0000000092
:1040F00000000000001E003F803180718063806FEF
:10410000806D806D806F806700600032003E001C13
:104110000000000000000000000E000E001B001B4D
:10412000001B001B80318031803F803F8031C060A8
:10413000C060C0600000000000000000007C007E45
:104140000063006300630063007E007E00638061A3
:1041500080618063007F007E00000000000000009E
:10416000001E003F803180610060006000600060E0
:104170000060006080618031003F001E0000000090
:1041800000000000007C007F00638063806180612C
:10419000806180618061806100630063007E007CDB
:1041A0000000000000000000807F807F0060006051
:1041B00000600060007F007F0060006000600060C1
:1041C000807F807F0000000000000000807F807FF3
:1041D0000060006000600060007F007F00600060A1
:1041E000006000600060006000000000000000004F
:1041F000001E003F803180610060006000608063CD
:104200008063806180618031803F001E000000007B
:104210000000000080618061806180618061806158
:10422000807F807F8061806180618061806180614A
:104230000000000000000000003F003F000C000CE8
:10424000000C000C000C000C000C000C000C000C0E
:10425000003F003F000000000000000080018001DE
:1042600080018001800180018001800180018061E6
:1042700080618073003F001E00000000000000000D
:10428000C0608061006300660066006C0078007C9E
:1042900000660066006380618061C060000000000D
:1042A00000000000006000600060006000600060CE
:1042B000006000600060006000600060807F807FC0
:1042C0000000000000000000C071C071C07BC07A17
:1042D000C06AC06AC06EC064C060C060C060C060B8
:1042E000C060C060000000000000000080718071AC
:1042F000807980798079806D806D806D8065806740
:104300008067806780638063000000000000000019
:10431000001E003F003380618061806180618061A8
:104320008061806180610033003F001E000000005A
:1043300000000000007E007F8063806180618061FA
:104340008063007F007E00600060006000600060AD
:104350000000000000000000001E003F00338061EC
:1043600080618061806180618061806580670033E9
:10437000803F401E0000000000000000007E007F23
:104380008063806180618063007F007E00660063DF
:10439000006380618061C0600000000000000000D8
:1043A000000E001F8031803100300038001E0007F1
:1043B0008003806180618031003F001E00000000AA
:1043C00000000000C0FFC0FF000C000C000C000C3F
:1043D000000C000C000C000C000C000C000C000C7D
:1043E0000000000000000000806180618061806149
:1043F00080618061806180618061806180618073A3
:10440000003F001E0000000000000000C060C0600F
:10441000C060803180318031001B001B001B001BFD
:10442000000E000E000E000400000000000000005E
:10443000C0C0C0C0C0C0C0C0C0C0C0CC804C804CD8
:10444000805E805280528073806180610000000035
:1044500000000000C0C0806080610033003B001E8F
:10446000000C000C001E001F003B80718061C0C06A
:104470000000000000000000C0C0806180610033C7
:104480000033001E001E000C000C000C000C000C81
:10449000000C000C0000000000000000803F803F86
:1044A0008001000300030006000C000C0018001837
:1044B00000300060807F807F000000000000000F5F
:1044C000000F000C000C000C000C000C000C000C89
:1044D000000C000C000C000C000C000C000C000F79
:1044E000000F0000001800180018000C000C000C51
:1044F000000C00060006000600060003000300038F
:10450000000000000000001E001E0006000600065D
:10451000000600060006000600060006000600066B
:10452000000600060006001E001E0000000C000C25
:10453000001E001200330033806180610000000023
:10454000000000000000000000000000000000006B
:10455000000000000000000000000000000000005B
:104560000000000000000000000000000000E0FF6C
:104570000000000000380018000C000000000000DF
:10458000000000000000000000000000000000002B
:10459000000000000000000000000000000000001B
:1045A000001F803F80618001801F803F80618063A9
:1045B000807FC03800000000000000000060006044
:1045C00000600060006E007F8073806180618061A8
:1045D00080618073007F006E00000000000000001A
:1045E0000000000000000000001E003F807380619A
:1045F0000060006080618073003F001E00000000CA
:10460000000000008001800180018001801D803F4A
:10461000807380618061806180618073803F801DD4
:10462000000000000000000000000000000000008A
:10463000001E003F00738061807F807F006080717A
:10464000003F001E0000000000000000C007C00F77
:10465000000C000C807F807F000C000C000C000C14
:10466000000C000C000C000C00000000000000001A
:10467000000000000000801D803F80738061806129
:10468000806180618073803F801D80018063007F36
:10469000003E00000060006000600060006F807FEE
:1046A00080718061806180618061806180618061F2
:1046B00000000000000000000006000600000000EE
:1046C000003E003E0006000600060006000600064A
:1046D00000060006000000000000000600060000C2
:1046E0000000003E003E0006000600060006000630
:1046F00000060006000600060046007E003C0000A2
:104700000060006000600060806100630066006C13
:10471000007C0076006300638061C06000000000E0
:1047200000000000003E003E0006000600060006F5
:104730000006000600060006000600060006000649
:104740000000000000000000000000000000000069
:1047500080DDC0FFC0CEC0CCC0CCC0CCC0CCC0CCF3
:10476000C0CCC0CC00000000000000000000000031
:1047700000000000006F807F807180618061806137
:1047800080618061806180610000000000000000A5
:104790000000000000000000001E003F80738061E8
:1047A0008061806180618073003F001E0000000016
:1047B00000000000000000000000006E007F807319
:1047C00080618061806180618073007F006E006025
:1047D0000060006000600000000000000000801D1C
:1047E000803F807380618061806180618073803FE1
:1047F000801D800180018001800100000000000018
:10480000000000000067803F0039003000300030B9
:1048100000300030003000300000000000000000D8
:104820000000000000000000001E803F806100606A
:10483000007F803F80018061007F001E000000003B
:10484000000000000000000800180018007F007F32
:10485000001800180018001800180018801F800F9A
:104860000000000000000000000000000000000048
:10487000806180618061806180618061806180632E
:10488000807F803D0000000000000000000000006C
:1048900000000000C060803180318031001B001BAF
:1048A000001B000E000E00060000000000000000CB
:1048B000000000000000000080DD80DD80DD00558C
:1048C000005500550077007700220022000000000C
:1048D00000000000000000000000000080610033C4
:1048E0000033001E000C000C001E003300338061FA
:1048F00000000000000000000000000000008061D7
:104900008061803100330033001B001B001B000E50
:10491000000E000E001C007C007000000000000073
:1049200000000000C07FC07F800100030006000C73
:1049300000180030C07FC07F00000000000080032E
:10494000800700060006000600060006000E001C98
:10495000001C000E00060006000600060006800788
:10496000800300060006000600060006000600069A
:104970000006000600060006000600060006000607
:104980000006000600060038003C000C000C000C7D
:10499000000C000C000E00070007000E000C000CBD
:1049A000000C000C000C003C00380000000000006F
:1049B00000000000000000008038807F00470000F9
:1049C00000000000000000000000000000000000E7
:1049D00000000000000000000000000000000000D7
:1049E00000000000000000000000000000000000C7
:1049F00000000000000000000000000000000000B7
:104A00000000E003E003E003E003E003E003E00371
:104A1000E003C003C003C001C001C001C001C00168
:104A2000000000000000E003E003E00300000000DD
:104A30000000000000003C1E3C1E3C1E3C1E3C1EB4
:104A40003C1E3C1E000000000000000000000000B2
:104A50000000000000000000000000000000000056
:104A600000000000000000000000CE01CE03DE03C5
:104A70009E039C039C07FF3FFF7F3807380F780F8A
:104A8000780F780EFFFFFFFFF01EF01CE01CE03CEB
:104A9000E03DE03900000000000000000000FC03E1
:104AA000FE0FEE1FE01EE01EE01EE01EE01FE00F06
:104AB000E007F003FC01FE01FE01FE01FE01FE0124
:104AC000FE01FE3DFC3FF00FE001E00100000000B0
:104AD0000000033E07F78FE78EE79EE3BCE3B8E7ED
:104AE000F8E7F0F7E03FC001FF03FF07F307F30F1C
:104AF000F31EF33CF338F3787FF03FE00000000052
:104B0000000000000000E007F80F780F781F781F02
:104B1000781F780FF00FE00F801FC37FC3FBE7F310
:104B2000F7F1F7F0FFF07FF03EF87F7CFF3FEF1FDB
:104B300000000000000000000000E003E003E003CC
:104B4000E003E003C003C00100000000000000001B
:104B50000000000000000000000000000000000055
:104B600000000000000000000000000000003F0006
:104B70007C00F001E001C003C00780078007800FC0
:104B8000000F000F000F000F000F000F800F8007B5
:104B90008007C007C003E001F0017C003F000F0068
:104BA0000000007E001FC007C003E001F001F0001C
:104BB000F000F8007800780078007800780078003D
:104BC000F800F000F000F001E001C003C007001F92
:104BD000007E00780000E003C003C001CE39FF3F33
:104BE0007F3F20037003F807780F3C1F3806000052
:104BF00000000000000000000000000000000000B5
:104C000000000000000000000000000000000000A4
:104C1000000000000000C001C001C001C001C001CF
:104C2000C001C001FFFFFFFFC001C001C001C00102
:104C3000C001C001000000000000000000000000F2
:104C40000000000000000000000000000000000064
:104C50000000000000000000000000000000000054
:104C6000E003E003E003E003E001E001E001C00154
:104C700080030000000000000000000000000000B1
:104C80000000000000000000FE3FFE3F00000000AA
:104C90000000000000000000000000000000000014
:104CA0000000000000000000000000000000000004
:104CB00000000000000000000000000000000000F4
:104CC0000000000000000000E003E003E003E00358
:104CD000000000000000000000000F000F001E0098
:104CE0001E003C003C0078007800F000F000E0017D
:104CF000E001C003C00380078007000F000F001E03
:104D0000001E003C003C0078007800F00000F00736
:104D1000F80F7C1F3E3E1E3C1F7C1F7C0F780F78D7
:104D20000F780F780F780F780F781F7C1F7C1E3C50
:104D30003E3E7C1FF80FF00700000000000000005E
:104D40000000F000F007F03FF03FF001F001F0014B
:104D5000F001F001F001F001F001F001F001F001CB
:104D6000F001F001F001F001FF3FFF3F0000000003
:104D7000000000000000E00FF83F7C3C3C003E00DB
:104D80003E003E003C003C007C00F800F001E003E7
:104D9000C0078007000F001E003E003CFE3FFE3FA4
:104DA00000000000000000000000F00FF81F7C1C55
:104DB0003E003E003E003C003C00F800F00FF80FC3
:104DC0007C003E001E001E001E001E003E007C1CDB
:104DD000F81FE01F00000000000000000000780045
:104DE000F800F800F801F803F807F807780F781EC4
:104DF000781E783C78787878FFFFFFFF780078009D
:104E000078007800780078000000000000000000C2
:104E10000000FC1FFC1FFC1F001E001E001E001EC9
:104E2000001EE01FF81FFC007C003E003E001E003C
:104E30003E003E003C007C1CF81FE01F000000000C
:104E4000000000000000FC01FE078E0F001F001E86
:104E5000003E003C003CF83DFC3F3E7F1F7E0F3C87
:104E60000F3C0F3C0F3C0F3E1F1E3E1FFC0FF0037C
:104E700000000000000000000000FF3FFF3FFF3F78
:104E80000F001E001E003C0038007800F000F0000B
:104E9000E001E001C003C0038007800F800F000F16
:104EA000001F001F00000000000000000000F807C5
:104EB000FC0F3E1F1E1E1E3E1E3E1E1E3C1FF80FF8
:104EC000F007F80FFC1E3E3E1F3C1F7C0F7C0F7C42
:104ED0001F3C3E3FFC1FF0070000000000000000E8
:104EE0000000F007F80F7C1E3E3C1E3C1F7C1F7C20
:104EF0001F7C1F7C1F3C3F3EFF1FEF071F001E0053
:104F00001E003E003C00F838F03FE01F00000000AB
:104F10000000000000000000000000000000000091
:104F20000000E003E003E003E003000000000000F5
:104F30000000000000000000E003E003E003E003E5
:104F40000000000000000000000000000000000061
:104F5000000000000000E003E003E003E0030000C5
:104F6000000000000000000000000000E003E0037B
:104F7000E003E003E001E001E001C0038003000082
:104F80000000000000000000000003000F003F00D0
:104F9000FC00F003C00F003F00FE003FC00FF00315
:104FA000FC003F000F0003000000000000000000B4
:104FB00000000000000000000000000000000000F1
:104FC000000000000000FFFFFFFF000000000000E5
:104FD000FFFFFFFF000000000000000000000000D5
:104FE00000000000000000000000000000000000C1
:104FF000000000E000F8007E801FE007F8017E005E
:105000001F007E00F801E007801F007E00F800E02E
:1050100000000000000000000000F01FFC3F3E38D0
:105020001F381F381E001E003C007800F000E00111
:10503000C003C003C007C007000000000000C00795
:10504000C007C00700000000000000000000F803D7
:10505000FE0F1E1F0F3E7F3CFF78EF79C773C7F32B
:105060008FF38FF38FF39FF39FF3FF73FF7BF7793A
:10507000003C1C1FFC0FF8030000000000000000B3
:105080000000000000000000E003E003F007F0076C
:10509000F007780F780F7C0E3C1E3C1E3E3CFE3F16
:1050A000FF3F1F780F780FF007F007F000000000B7
:1050B000000000000000000000000000F83FFC3F7E
:1050C0003E3C1E3C1E3C1E3C3E3C7C3CF03FF83FC0
:1050D0007E3C1F3C1F3C0F3C0F3C1F3CFE3FF83FFB
:1050E00000000000000000000000000000000000C0
:1050F000FF01FF07871F003E003C007C007800781E
:10510000007800780078007C007C003E003F831F20
:10511000FF07FF0100000000000000000000000089
:1051200000000000F07FFC7F7E781F781F780F78EA
:105130000F780F780F780F780F780F780F781F7827
:105140001E787E78F87FE07F0000000000000000FD
:105150000000000000000000FF3FFF3F003E003E57
:10516000003E003E003E003EFE3FFE3F003E003E51
:10517000003E003E003E003EFF3FFF3F00000000BB
:10518000000000000000000000000000FF1FFF1FE3
:10519000001E001E001E001E001E001EFF1FFF1F1F
:1051A000001E001E001E001E001E001E001E001E0F
:1051B00000000000000000000000000000000000EF
:1051C000FE03FF0F871F003E007C007C007800F884
:1051D00000F87FF87FF80F780F7C0F7C0F3E8F1F51
:1051E000FF0FFE03000000000000000000000000B0
:1051F000000000001F7C1F7C1F7C1F7C1F7C1F7C0D
:105200001F7C1F7CFF7FFF7F1F7C1F7C1F7C1F7C00
:105210001F7C1F7C1F7C1F7C000000000000000022
:105220000000000000000000FF3FFF3FE003E0033C
:10523000E003E003E003E003E003E003E003E00356
:10524000E003E003E003E003FF3FFF3F0000000056
:10525000000000000000000000000000FC1FFC1F18
:105260007C007C007C007C007C007C007C007C005E
:105270007C007C007C0078007800F838F03FC03F6C
:10528000000000000000000000000000000000001E
:105290001F3C1E3C3C3C783CF03CE03DE03FC03FC6
:1052A000803FC03FE03FF03DF03C783C7C3C3E3CE2
:1052B0001F3C0F3C00000000000000000000000048
:1052C00000000000003E003E003E003E003E003E6A
:1052D000003E003E003E003E003E003E003E003EDE
:1052E000003E003EFF3FFF3F0000000000000000C6
:1052F00000000000000000001FF81FFC1FFC3FFE24
:105300003FFE3FFE7FFF77FF77FFF7F7E7F7E7F313
:10531000E7F3C7F307F007F007F007F0000000001D
:105320000000000000000000000000000F7C0F7C67
:105330000F7E0F7F0F7F8F7F8F7FCF7FEF7BEF7988
:10534000FF79FF78FF787F783F783F781F781F7864
:10535000000000000000000000000000000000004D
:10536000F007FC1F3E3E1F7C0F780F780FF80FF8F8
:105370000FF80FF80FF80FF80F780F781F7C3E3EEC
:10538000FC1FF0070000000000000000000000000B
:1053900000000000FC3FFF3F1F3E0F3E0F3E0F3E50
:1053A0000F3E1F3E3F3EFC3FF03F003E003E003EB2
:1053B000003E003E003E003E0000000000000000F5
:1053C0000000000000000000F007FC1F3E3E1F7CB4
:1053D0000F780F780FF80FF80FF80FF80FF80FF895
:1053E0000F780F781F7C3E3EFC1FF8077C003F00C3
:1053F0000F0003000000000000000000F03FFC3F31
:105400007E3C3E3C1E3C1E3C3E3C3C3CFC3CF03F5B
:10541000E03FF03DF83C7C3C3E3C1E3C1F3C0F3CDA
:10542000000000000000000000000000000000007C
:10543000FC07FE1F0E3E003C003C003C003EC01F2F
:10544000F80FFE037F001F000F000F001F203E3CDF
:10545000FC3FF01F00000000000000000000000002
:1054600000000000FFFFFFFFE003E003E003E003B4
:10547000E003E003E003E003E003E003E003E00314
:10548000E003E003E003E003000000000000000090
:1054900000000000000000000F7C0F7C0F7C0F7CE0
:1054A0000F7C0F7C0F7C0F7C0F7C0F7C0F7C0F7CA4
:1054B0000F7C1E3C1E3C3E3EFC1FF007000000001F
:1054C00000000000000000000000000007F007F0EE
:1054D00007F80F780F7C1E3C1E3C1E3E3C1E3C1FF6
:1054E000781F780FF80FF007F007F007E003E003EC
:1054F00000000000000000000000000000000000AC
:1055000003E003F003F007F0E7F3E7F3E7F3E773F3
:10551000F77BF77FFF7F7F7F7F7F7E7F7E3F3E3EF3
:105520003E3E3E3E00000000000000000000000083
:105530000000000007F80F7C1E3E3E3E3C1FF80FA7
:10554000F007E007E003E003F007F80F7C0F7C1E94
:105550003E3C1F780F780FF00000000000000000B4
:10556000000000000000000007F807780F7C1E3CD8
:105570001E3E3C1F780FF80FF007E003E003E00346
:10558000E003E003E003E003E003E00300000000C9
:10559000000000000000000000000000FF7FFF7F0F
:1055A0000F001F003E007C00F800F000E001E00367
:1055B000C007800F000F001E003E007CFF7FFF7FB2
:1055C00000000000000000000000FF0780078007C7
:1055D0008007800780078007800780078007800793
:1055E0008007800780078007800780078007800783
:1055F0008007800780078007FF07FF07000000780B
:105600000078003C003C001E001E000F000F8007C9
:105610008007C003C003E001E001F000F000780063
:1056200078003C003C001E001E000F000F00070029
:105630000000F07FF000F000F000F000F000F0005B
:10564000F000F000F000F000F000F000F000F000DA
:10565000F000F000F000F000F000F000F000F000CA
:10566000F07FF07F0000C000C001C001E003E00354
:10567000F007F0077807780F380F3C1E3C1E1E3CE1
:105680001E3C0F380F780778000000000000000073
:10569000000000000000000000000000000000000A
:1056A00000000000000000000000000000000000FA
:1056B00000000000000000000000000000000000EA
:1056C00000000000FFFFFFFF000000000000F000EE
:1056D00000000000000000000000000000000000CA
:1056E00000000000000000000000000000000000BA
:1056F00000000000000000000000000000000000AA
:105700000000000000000000000000000000F80F92
:10571000FC3F7C3C3E003E003E00FE07FE1F3E3E3E
:105720003E7C3E783E7C7E7CFF3FCF1F0000000029
:10573000000000000000003C003C003C003C003C3D
:10574000003CF83DFE3F3E3F1F3E0F3C0F3C0F3CF0
:105750000F3C0F3C0F3C1F3C1E3C3E3FFC3FF03BD0
:105760000000000000000000000000000000000039
:10577000000000000000FE03FF0F871F003E003EF8
:10578000003C007C007C007C003C003E003E871F0B
:10579000FF0FFE03000000000000000000001F00DB
:1057A0001F001F001F001F001F00FF07FF1F3F3EBD
:1057B0001F3C1F7C1F7C1F7C1F781F781F7C1F7C59
:1057C0003F3C7F3EFF1FDF0F000000000000000095
:1057D0000000000000000000000000000000F803CE
:1057E000FC0F3E1F1E3E1F3C1F7CFF7FFF7F007C87
:1057F000007C003C003E071FFF0FFE03000000007E
:10580000000000000000FF01E103C003C007C00763
:10581000C007FF7FFF7FC007C007C007C007C007E2
:10582000C007C007C007C007C007C007C007C00740
:105830000000000000000000000000000000000068
:10584000000000000000EF07FF1F7F3E1F3C1F7C91
:105850001F7C1F781F781F781F7C1F7C3F3C7F3E7A
:10586000FF1FDF0F1E001E001E007C38F83F003CAB
:10587000003C003C003C003C003CFC3DFE3F9E3FA9
:105880001F3F1F3E1F3C1F3C1F3C1F3C1F3C1F3C3B
:105890001F3C1F3C1F3C1F3C00000000000000009C
:1058A0000000F001F0010000000000000000E07FB7
:1058B000E07FE001E001E001E001E001E001E00162
:1058C000E001E001E001E001E001E0010000000092
:1058D000000000000000F800F800000000000000D8
:1058E0000000F83FF83FF800F800F800F800F80072
:1058F000F800F800F800F800F800F800F800F800E8
:10590000F800F800F000F071E07F003C003C003C43
:10591000003C003C003C1F3C3E3C7C3CF83CF03DE5
:10592000E03DC03FC03FE03FF03DF83C7C3C3E3CAA
:105930001F3C1F3C00000000000000000000F07F42
:10594000F001F001F001F001F001F001F001F001CF
:10595000F001F001F001F001F001F001F001F001BF
:10596000F001F001F001F001000000000000000073
:1059700000000000000000000000000000009EF792
:10598000FFFFFFFFFFFFE7FBE7F9C7F1C7F1C7F133
:10599000C7F1C7F1C7F1C7F1C7F1C7F100000000B7
:1059A00000000000000000000000000000000000F7
:1059B0000000FC3DFE3F9E3F1F3F1F3E1F3C1F3C23
:1059C0001F3C1F3C1F3C1F3C1F3C1F3C1F3C1F3CFF
:1059D00000000000000000000000000000000000C7
:1059E000000000000000F007FC1F3E3E1F3C1F7C33
:1059F0000F780F780F780F780F781F7C1F3C3E3E92
:105A0000FC1FF00700000000000000000000000084
:105A100000000000000000000000F83DFE3F3E3F97
:105A20001F3E0F3C0F3C0F3C0F3C0F3C0F3C1F3CFC
:105A30001E3E3E3FFC3FF83F003C003C003C003C2B
:105A4000003C000000000000000000000000EE0725
:105A5000FE1F7E3E1E3C1E7C1E781E781E781E7821
:105A60001E781E7C3E7C7E3EFE1FDE0F1E001E004A
:105A70001E001E001E0000000000000000000000CC
:105A800000007F1FFF1FE71FC71F871F001F001F8A
:105A9000001F001F001F001F001F001F001F001F0E
:105AA00000000000000000000000000000000000F6
:105AB000000000000000FC07FE1F0E1E003E003E1E
:105AC000003FE01FFC07FE003E001E001E003E3CA3
:105AD000FC3FF01F0000000000000000000000007C
